{
  "_format": "hh-sol-artifact-1",
  "contractName": "DigitalProductStore",
  "sourceName": "contracts/DigitalProductStore.sol",
  "abi": [
    {
      "anonymous": false,
      "inputs": [
        {
          "indexed": true,
          "internalType": "uint256",
          "name": "productId",
          "type": "uint256"
        },
        {
          "indexed": false,
          "internalType": "string",
          "name": "name",
          "type": "string"
        },
        {
          "indexed": false,
          "internalType": "uint256",
          "name": "price",
          "type": "uint256"
        },
        {
          "indexed": true,
          "internalType": "address",
          "name": "seller",
          "type": "address"
        }
      ],
      "name": "ProductAdded",
      "type": "event"
    },
    {
      "anonymous": false,
      "inputs": [
        {
          "indexed": true,
          "internalType": "address",
          "name": "buyer",
          "type": "address"
        },
        {
          "indexed": true,
          "internalType": "uint256",
          "name": "productId",
          "type": "uint256"
        },
        {
          "indexed": true,
          "internalType": "address",
          "name": "seller",
          "type": "address"
        },
        {
          "indexed": false,
          "internalType": "uint256",
          "name": "price",
          "type": "uint256"
        }
      ],
      "name": "ProductPurchased",
      "type": "event"
    },
    {
      "inputs": [
        {
          "internalType": "string",
          "name": "name",
          "type": "string"
        },
        {
          "internalType": "string",
          "name": "link",
          "type": "string"
        },
        {
          "internalType": "uint256",
          "name": "price",
          "type": "uint256"
        },
        {
          "internalType": "address payable",
          "name": "seller",
          "type": "address"
        }
      ],
      "name": "addProduct",
      "outputs": [],
      "stateMutability": "nonpayable",
      "type": "function"
    },
    {
      "inputs": [
        {
          "internalType": "uint256",
          "name": "productId",
          "type": "uint256"
        }
      ],
      "name": "deactivateProduct",
      "outputs": [],
      "stateMutability": "nonpayable",
      "type": "function"
    },
    {
      "inputs": [
        {
          "internalType": "uint256",
          "name": "productId",
          "type": "uint256"
        }
      ],
      "name": "getProduct",
      "outputs": [
        {
          "internalType": "string",
          "name": "name",
          "type": "string"
        },
        {
          "internalType": "string",
          "name": "link",
          "type": "string"
        },
        {
          "internalType": "uint256",
          "name": "price",
          "type": "uint256"
        },
        {
          "internalType": "address",
          "name": "seller",
          "type": "address"
        },
        {
          "internalType": "bool",
          "name": "isActive",
          "type": "bool"
        }
      ],
      "stateMutability": "view",
      "type": "function"
    },
    {
      "inputs": [],
      "name": "getProductLength",
      "outputs": [
        {
          "internalType": "uint256",
          "name": "",
          "type": "uint256"
        }
      ],
      "stateMutability": "view",
      "type": "function"
    },
    {
      "inputs": [
        {
          "internalType": "address",
          "name": "",
          "type": "address"
        },
        {
          "internalType": "uint256",
          "name": "",
          "type": "uint256"
        }
      ],
      "name": "hasPurchased",
      "outputs": [
        {
          "internalType": "bool",
          "name": "",
          "type": "bool"
        }
      ],
      "stateMutability": "view",
      "type": "function"
    },
    {
      "inputs": [
        {
          "internalType": "address",
          "name": "user",
          "type": "address"
        },
        {
          "internalType": "uint256",
          "name": "productId",
          "type": "uint256"
        }
      ],
      "name": "hasUserPurchased",
      "outputs": [
        {
          "internalType": "bool",
          "name": "",
          "type": "bool"
        }
      ],
      "stateMutability": "view",
      "type": "function"
    },
    {
      "inputs": [
        {
          "internalType": "uint256",
          "name": "",
          "type": "uint256"
        }
      ],
      "name": "productSales",
      "outputs": [
        {
          "internalType": "uint256",
          "name": "",
          "type": "uint256"
        }
      ],
      "stateMutability": "view",
      "type": "function"
    },
    {
      "inputs": [
        {
          "internalType": "uint256",
          "name": "",
          "type": "uint256"
        }
      ],
      "name": "products",
      "outputs": [
        {
          "internalType": "string",
          "name": "name",
          "type": "string"
        },
        {
          "internalType": "string",
          "name": "link",
          "type": "string"
        },
        {
          "internalType": "uint256",
          "name": "price",
          "type": "uint256"
        },
        {
          "internalType": "address payable",
          "name": "seller",
          "type": "address"
        },
        {
          "internalType": "bool",
          "name": "isActive",
          "type": "bool"
        }
      ],
      "stateMutability": "view",
      "type": "function"
    },
    {
      "inputs": [
        {
          "internalType": "uint256",
          "name": "productId",
          "type": "uint256"
        }
      ],
      "name": "purchaseProduct",
      "outputs": [],
      "stateMutability": "payable",
      "type": "function"
    }
  ],
  "bytecode": "0x608060405234801561001057600080fd5b50610f98806100206000396000f3fe6080604052600436106100765760003560e01c8063119231321461007b5780631198a630146100cb57806338e76a03146100eb5780637acc0b2014610100578063b9db15b414610131578063ba94a92414610151578063bf59f37b14610171578063f2d61819146101ac578063fd77e5de146101c1575b600080fd5b34801561008757600080fd5b506100b6610096366004610b7c565b600160209081526000928352604080842090915290825290205460ff1681565b60405190151581526020015b60405180910390f35b3480156100d757600080fd5b506100b66100e6366004610b7c565b6101e1565b6100fe6100f9366004610ba8565b61023b565b005b34801561010c57600080fd5b5061012061011b366004610ba8565b6104bc565b6040516100c2959493929190610c07565b34801561013d57600080fd5b5061012061014c366004610ba8565b610621565b34801561015d57600080fd5b506100fe61016c366004610cf7565b61083c565b34801561017d57600080fd5b5061019e61018c366004610ba8565b60026020526000908152604090205481565b6040519081526020016100c2565b3480156101b857600080fd5b5060005461019e565b3480156101cd57600080fd5b506100fe6101dc366004610ba8565b610a89565b60008054821061020c5760405162461bcd60e51b815260040161020390610d76565b60405180910390fd5b506001600160a01b038216600090815260016020908152604080832084845290915290205460ff165b92915050565b600054811061025c5760405162461bcd60e51b815260040161020390610d76565b600080828154811061027057610270610da6565b906000526020600020906004020190508060030160149054906101000a900460ff166102d95760405162461bcd60e51b815260206004820152601860248201527750726f64756374206973206e6f7420617661696c61626c6560401b6044820152606401610203565b806002015434146103275760405162461bcd60e51b8152602060048201526018602482015277125b98dbdc9c9958dd081c185e5b595b9d08185b5bdd5b9d60421b6044820152606401610203565b33600090815260016020908152604080832085845290915290205460ff161561038e5760405162461bcd60e51b8152602060048201526019602482015278141c9bd91d58dd08185b1c9958591e481c1d5c98da185cd959603a1b6044820152606401610203565b3360009081526001602081815260408084208685528252808420805460ff191684179055600290915282208054919290916103ca908490610dd2565b909155505060038101546040516000916001600160a01b03169034908381818185875af1925050503d806000811461041e576040519150601f19603f3d011682016040523d82523d6000602084013e610423565b606091505b505090508061046f5760405162461bcd60e51b815260206004820152601860248201527714185e5b595b9d081d1bc81cd95b1b195c8819985a5b195960421b6044820152606401610203565b60038201546040513481526001600160a01b0390911690849033907f54f52d8696cb5712ec5d0a95b5324770cbea70d3535acfe61f2ce10e04ad39d39060200160405180910390a4505050565b600081815481106104cc57600080fd5b90600052602060002090600402016000915090508060000180546104ef90610de5565b80601f016020809104026020016040519081016040528092919081815260200182805461051b90610de5565b80156105685780601f1061053d57610100808354040283529160200191610568565b820191906000526020600020905b81548152906001019060200180831161054b57829003601f168201915b50505050509080600101805461057d90610de5565b80601f01602080910402602001604051908101604052809291908181526020018280546105a990610de5565b80156105f65780601f106105cb576101008083540402835291602001916105f6565b820191906000526020600020905b8154815290600101906020018083116105d957829003601f168201915b5050505060028301546003909301549192916001600160a01b0381169150600160a01b900460ff1685565b60608060008060008080549050861061064c5760405162461bcd60e51b815260040161020390610d76565b600080878154811061066057610660610da6565b90600052602060002090600402016040518060a001604052908160008201805461068990610de5565b80601f01602080910402602001604051908101604052809291908181526020018280546106b590610de5565b80156107025780601f106106d757610100808354040283529160200191610702565b820191906000526020600020905b8154815290600101906020018083116106e557829003601f168201915b5050505050815260200160018201805461071b90610de5565b80601f016020809104026020016040519081016040528092919081815260200182805461074790610de5565b80156107945780601f1061076957610100808354040283529160200191610794565b820191906000526020600020905b81548152906001019060200180831161077757829003601f168201915b505050918352505060028201546020808301919091526003909201546001600160a01b03811660408084019190915260ff600160a01b90920482161515606090930192909252336000908152600184528281208c8252909352908220549293509091166108105760405180602001604052806000815250610816565b81602001515b825160408401516060850151608090950151919b929a5098509296509194509092505050565b6000821161088c5760405162461bcd60e51b815260206004820152601f60248201527f5072696365206d7573742062652067726561746572207468616e207a65726f006044820152606401610203565b60008451116108d45760405162461bcd60e51b81526020600482015260146024820152734e616d652063616e6e6f7420626520656d70747960601b6044820152606401610203565b600083511161091c5760405162461bcd60e51b81526020600482015260146024820152734c696e6b2063616e6e6f7420626520656d70747960601b6044820152606401610203565b6001600160a01b03811661096b5760405162461bcd60e51b8152602060048201526016602482015275496e76616c69642073656c6c6572206164647265737360501b6044820152606401610203565b6040805160a081018252858152602081018590529081018390526001600160a01b03821660608201526001608082018190526000805491820181558052815160049091027f290decd9548b62a8d60345a988386fc84ba6bc95484008f6362f93160ef3e563019081906109de9082610e6e565b50602082015160018201906109f39082610e6e565b50604082015160028201556060820151600390910180546080909301511515600160a01b026001600160a81b03199093166001600160a01b03928316179290921790915560005490821690610a4a90600190610f2d565b7f52402cafb2ecec722b103e8f203f83362148c168659dc96678c2c6850d12dd9f8685604051610a7b929190610f40565b60405180910390a350505050565b6000548110610aaa5760405162461bcd60e51b815260040161020390610d76565b60008181548110610abd57610abd610da6565b60009182526020909120600490910201600301546001600160a01b03163314610b255760405162461bcd60e51b815260206004820152601a6024820152794f6e6c792073656c6c65722063616e206465616374697661746560301b6044820152606401610203565b6000808281548110610b3957610b39610da6565b906000526020600020906004020160030160146101000a81548160ff02191690831515021790555050565b6001600160a01b0381168114610b7957600080fd5b50565b60008060408385031215610b8f57600080fd5b8235610b9a81610b64565b946020939093013593505050565b600060208284031215610bba57600080fd5b5035919050565b6000815180845260005b81811015610be757602081850181015186830182015201610bcb565b506000602082860101526020601f19601f83011685010191505092915050565b60a081526000610c1a60a0830188610bc1565b8281036020840152610c2c8188610bc1565b604084019690965250506001600160a01b03929092166060830152151560809091015292915050565b634e487b7160e01b600052604160045260246000fd5b600082601f830112610c7c57600080fd5b81356001600160401b0380821115610c9657610c96610c55565b604051601f8301601f19908116603f01168101908282118183101715610cbe57610cbe610c55565b81604052838152866020858801011115610cd757600080fd5b836020870160208301376000602085830101528094505050505092915050565b60008060008060808587031215610d0d57600080fd5b84356001600160401b0380821115610d2457600080fd5b610d3088838901610c6b565b95506020870135915080821115610d4657600080fd5b50610d5387828801610c6b565b935050604085013591506060850135610d6b81610b64565b939692955090935050565b602080825260169082015275141c9bd91d58dd08191bd95cc81b9bdd08195e1a5cdd60521b604082015260600190565b634e487b7160e01b600052603260045260246000fd5b634e487b7160e01b600052601160045260246000fd5b8082018082111561023557610235610dbc565b600181811c90821680610df957607f821691505b602082108103610e1957634e487b7160e01b600052602260045260246000fd5b50919050565b601f821115610e6957600081815260208120601f850160051c81016020861015610e465750805b601f850160051c820191505b81811015610e6557828155600101610e52565b5050505b505050565b81516001600160401b03811115610e8757610e87610c55565b610e9b81610e958454610de5565b84610e1f565b602080601f831160018114610ed05760008415610eb85750858301515b600019600386901b1c1916600185901b178555610e65565b600085815260208120601f198616915b82811015610eff57888601518255948401946001909101908401610ee0565b5085821015610f1d5787850151600019600388901b60f8161c191681555b5050505050600190811b01905550565b8181038181111561023557610235610dbc565b604081526000610f536040830185610bc1565b9050826020830152939250505056fea2646970667358221220f671beb3e8131dbad3ed39f71f9c8552783ce88642e42ef3deb313811dd56e3064736f6c63430008140033",
  "linkReferences": {},
  "deployedLinkReferences": {}
}